:1000000001308A0096290000321DA0127517A53A0A
:100010002010A53AAE12F5068A060A000130F70054
:100020002908F800031918280310F70DF80B1428F5
:100030007708880408002F30840083130008031910
:100040002F280530F800F701F70B2428F80B232898
:100050002E30F700F70B2A282D28800B21280800C6
:100060000130F7002908F80003193A280310F70DAA
:10007000F80B36287708FF3A88051E30AF001B20A2
:100080000130F7002908F80003194A280310F70D7A
:10009000F80B4628770888043530F700F70B4E2810
:1000A0000808F7002908F80003195A280310F70C6C
:1000B000F80B562877080139031D50280808F70067
:1000C0002908F800031968280310F70CF80B6428B6
:1000D0007708013903195E280808F7002908F80095
:1000E000031976280310F70CF80B722877080139EA
:1000F000031D6C28AE012E08033C031CD9282A30AE
:100100002E07F800FA010318FA0A7808AF007A08F7
:10011000B0002908B1000830B200B3013208B203C0
:10012000003A0319CE280808F7003108F80003192F
:100130009D280310F70CF80B99287708013903194B
:1001400093283530F700F70BA3280808F70031088B
:10015000F8000319AF280310F70CF80BAB28770849
:1001600001390319CD280130F7003208F8000319CE
:10017000BD280310F70DF80BB9287708B304080859
:10018000F7003108F8000319C9280310F70CF80B21
:10019000C52877080139031DBF288E283308F800C9
:1001A0002F08840083133018831778088000AE0A64
:1001B0007B280130F7002908F8000319E328031011
:1001C000F70DF80BDF28770888042A08F7002B08BA
:1001D000F8002C08F9002D08FA0008002C08F80196
:1001E0002B020318F6282B08F7000229F701083024
:1001F000AD00AB0DF70D2C0877020318F700F80DD2
:10020000AD0BF928080078082908AB006430AC0071
:10021000EE207708A90078083030031D1629AA1CA3
:100220001E29AA191E292A1A20301929AA112A12B0
:100230002A14F80778080C1E1B2999002908AB001E
:100240000A30AC00EE207708A90078083030031D92
:100250002F29AA1934292A1C34292A1A2030F807F0
:1002600078080C1E312999003030A90729080C1E86
:100270003729990008000B08AA008B13831603176F
:100280008C170C140000000083120313AA1B8B1799
:100290000318732903170C087F390313AA000317E7
:1002A0000D080313AB0003170F080313AC002A0853
:1002B0000C1E582999002B0803178D0003132C08D6
:1002C00003178F0003130B08AD008B13831603175E
:1002D0008C170C140000000083120313AD1B8B1746
:1002E000A90B7329932903170C0D0E0D7F390313E6
:1002F000AA0003170D080313AB0003170F0803131D
:10030000AC002A080C1E822999002B0803178D00C7
:1003100003132C0803178F008D0A03198F0A03108B
:100320000313A90B3B298A110A12402A03081F391B
:100330008300A001193083169900A23098009030F4
:100340008312980083161F149F141F159F110730E6
:100350009C008313880183128801A9010E200130BB
:10036000A9000E200430A900FA30AF001B20A90B11
:10037000B429A90130207A08A4007908A3007808DC
:10038000A2007708A1000130A90030207A08A80057
:100390007908A7007808A6007708A50031300C1E60
:1003A000CF2999003A300C1ED329990020300C1E19
:1003B000D72999002108A9001B30AA0003212E305B
:1003C0000C1EE02999002208A9001B30AA00032175
:1003D00020300C1EE929990020300C1EED299900CF
:1003E0002308A9001B30AA0003212E300C1EF62979
:1003F00099002408A9001B30AA0003210D300C1E0F
:10040000FF2999000A300C1E032A990032300C1E75
:10041000072A99003A300C1E0B2A990020300C1E36
:100420000F2A99002508A9001B30AA0003212E30AD
:100430000C1E182A99002608A9001B30AA000321C7
:1004400020300C1E212A990020300C1E252A9900EC
:100450002708A9001B30AA0003212E300C1E2E2ACB
:1004600099002808A9001B30AA0003210B300317AC
:100470008D0000308F00031404300313A9003B29C2
:0A0480006430AF001B20B9296300AF
:02400E00323F3F
:00000001FF
;PIC16F877A
;CRC=C5E6  CREATED="20-Eyl-19 14:46"
